:100000000C947D1C0C94A51C0C94A51C0C94A51C94
:100010000C94A51C0C94A51C0C94A51C0C94A51C5C
:100020000C94A51C0C94A51C0C94A51C0C94A51C4C
:100030000C94A51C0C94A51C0C94A51C0C94A51C3C
:100040000C9486220C94A51C0C94A51C0C94A51C45
:100050000C94A51C0C94A51C0C94A51C0C94A51C1C
:100060000C94CC250C94A51C1A2DEC2D392EAD2EFC
:10007000242FA02FCD2F005EBCE2613FDD83C29C08
:100080007E20A3FD1F41009D23BE46DB65F88C1139
:10009000AF32CA57E97420FF0102000000000000DF
:1000A0000000000000000000000000000000F80058
:1000B0000000000000001B0000000000003C003CAD
:1000C00000000000000000000000000040F840F8C0
:1000D00040000000021F021F020000609010F81094
:1000E0006000000C10113F110E0000304848F02055
:1000F00018000018040F12120C000000708888709D
:100100000000000E11110A0C1300000000003C005A
:1001100000000000000000000000000000C03008E7
:10012000040000000007182040000000040830C050
:100130000000000040201807000000004080E08020
:100140004000000004020F02040000000000E00074
:100150000000000001010F0101000000000000008C
:10016000000000000048380000000000000000000F
:10017000000000000101010101000000000000007A
:100180000000000000103810000000000000C03027
:100190000C00006018060100000000E010080810C4
:1001A000E000000708101008070000002010F80009
:1001B0000000000010101F10100000300808088810
:1001C0007000001018141211100000080888C8A848
:1001D0001800000C101010100F000000806010F8C4
:1001E000000000060504041F040000F848484848C1
:1001F0008800000C101010100F0000E01088888894
:100200000000000F111010100F0000080808886887
:1002100018000000180601000000003048888848D7
:100220003000000E111010110E0000F008080888B0
:10023000F000000C11111108070000000040E04020
:100240000000000000081C080000000000C0C00002
:100250000000000000241C0000000000008040207E
:10026000100000000102040810000040404040401F
:100270004000000202020202020000001020408042
:10028000000000001008040201000030080888483F
:100290003000000000001B00000000E010C828280B
:1002A000F000000708131414170000E010080810ED
:1002B000E000001F010101011F0000F8888888503C
:1002C0002000001F10101009060000F008080808A0
:1002D0003000000F101010100C0000F80808081073
:1002E000E000001F10101008070000F88888880838
:1002F0000800001F10101010100000F888888808EF
:100300000800001F00000000000000F008080808B6
:100310003000000F101011091F0000F8808080804D
:10032000F800001F000000001F0000000808F80887
:100330000800000010101F1010000000000008F856
:100340000800000C1010100F000000F88040201072
:100350000800001F00010204180000F8000000005F
:100360000000001F10101010100000F830C0C03046
:10037000F800001F000000001F0000F8608000006F
:10038000F800001F000001061F0000F00808080820
:10039000F000000F101010100F0000F808080808F7
:1003A000F000001F01010101000000F0080808082A
:1003B000F000000F121214384F0000F80808080867
:1003C000F000001F0101030518000070888808086C
:1003D0003000000C101011110E0000080808F80879
:1003E0000808000000001F00000000F800000000E6
:1003F000F800000F101010100F000078800000802F
:1004000078000000031C1C0300000000F80000003E
:10041000F80000000F100E100F00001860808060C0
:1004200018000018060101061800000038C000C0BE
:100430003800000000001F00000000080808C8285D
:1004400018000018161110101000000000FC040421
:1004500004000000007F40404000000C30C000005D
:10046000000000000001061860000000040404FC05
:10047000000000004040407F000000100804040815
:10048000100000000000000000000000000000005C
:1004900000000040404040404000000000040810C0
:1004A00000000000000000000000008040404040CC
:1004B0008000000C121212121F0000F88040404011
:1004C0008000001F081010100F00008040404040C6
:1004D0008000000F10101010080000804040408085
:1004E000F800000F101010081F000080404040402E
:1004F0008000000F121212120B00008080F088881A
:1005000010000000001F00000000008040404080FC
:10051000400000334C545453200000F880404040C9
:100520008000001F000000001F0000000040D800F5
:100530000000000010101F1010000000000000401C
:10054000D8000000304040403F0000F800008040EC
:100550000000001F02030408100000000008F8005B
:100560000000000010101F1010000000C04080406C
:10057000800000001F000F001F0000C080404040AE
:100580008000001F000000001F000080404040402D
:100590008000000F101010100F0000C0804040407D
:1005A0008000007F081010100F0000804040408045
:1005B000C000000F101010087F0000C080404040B5
:1005C0008000001F0000000001000080404040400B
:1005D00080000008111212140800004040F840404A
:1005E00000000000000F1010080000C00000000014
:1005F000C000000F101010081F000000C000000015
:10060000C00000000106180601000000C000000044
:10061000C00000000F100F100F0000C0000000000D
:10062000C000001805020205180000C0000000000C
:10063000C0000027484848443F000040404040C0B8
:100640004000001018161110100000000000F804FF
:100650000400000000013E40400000000000FC00DB
:100660000000000000007F00000000000404F8000B
:100670000000000040403E01000000180408102067
:100680001800000000000000000000000000000052
:10069000000000000000000000000000000000005A
:1006A000000000000000000000000000000000004A
:1006B000000000000000000000000000000000003A
:1006C000000000000000000000000000000000002A
:1008A0000000000000000000000000000000D80070
:1008B0000000000000001F000000008040E04040F9
:1008C0008000000F103F10100800000000E0101022
:1008D00020000000091F090910000020C04040C08E
:1008E00020000004030202030400000088B0C0B02E
:1008F0008800000002021F020200000000007800D1
:100900000000000000001E00000000885424244461
:100910008800000811121215080000000C00000CDD
:100920000000000000000000000000F8E41414249F
:10093000F800000F131414120F0000006894945470
:10094000F800000002020202020000000080408065
:1009500040000002050A1508100000000000000019
:1009600000000000020202021E0000000000000061
:100970000000000001010101000000F8F4949464FB
:10098000F800000F171010170F00000008080808E3
:1009900008000000000000000000000018242418D7
:1009A00000000000000000000000000000008000C7
:1009B0000000000012121F121200000088442418C8
:1009C000000000000101010100000000882424D87B
:1009D00000000000000101000000000000100804F9
:1009E0000000000000000000000000008000000087
:1009F000800000007F0810081F000000F008F808C1
:100A0000F800000000017F407F000000000080002F
:100A100000000000000000000000000000000000D6
:100A20000000000000403000000000000008FC0052
:100A300000000000000101010000000030484830C3
:100A40000000000001010101000000408040800022
:100A50000000001008150A0502000010F800806070
:100A60001000001804030C0A1F000010F80080603A
:100A7000100000180403121916000088A850C020A6
:100A80001800000806010C0A1F00000000B000005A
:100A90000000003048474040300000C020121420C1
:100AA000C000001F010101011F0000C0201412201E
:100AB000C000001F010101011F0000C02412122408
:100AC000C000001F010101011F0000C422121424F4
:100AD000C200001F010101011F0000C024101024EA
:100AE000C000001F010101011F0000C028141428CC
:100AF000C000001F010101011F0000E09088F8887C
:100B00008800001F00001F10100000F008080808EF
:100B10003000000F105030100C0000F010121410B4
:100B20001000001F11111111100000F0101412100C
:100B30001000001F11111111100000F014121214F6
:100B40001000001F11111111100000F014101014EA
:100B50001000001F11111111100000001012F410EC
:100B60001000000010101F10100000001010F412F0
:100B70001000000010101F10100000001014F214DC
:100B80001000000010101F10100000001014F014CE
:100B90001000000010101F1010000080F888880856
:100BA00010E000001F101010080700F432C2040407
:100BB000F200001F000007181F0000E010121410C0
:100BC000E000000F101010100F0000E010141210C1
:100BD000E000000F101010100F0000E014121214AB
:100BE000E000000F101010100F0000E41212141497
:100BF000E200000F101010100F0000E0141010148D
:100C0000E000000F101010100F00004080000000E6
:100C10008040001008050205081000F00808E818D8
:100C2000F600006F181710100F0000F0000204000B
:100C3000F000000F101010100F0000F00004020070
:100C4000F000000F101010100F0000F0040202045A
:100C5000F000000F101010100F0000F0040000044E
:100C6000F000000F101010100F00000030C004C280
:100C70003000000000001F00000000F820202020AD
:100C8000C000001F0404040403000000F088887002
:100C9000000000101F1010110E000080404850404E
:100CA0008000000C121212121F00008040405048B9
:100CB0008000000C121212121F0000805048485091
:100CC0008000000C121212121F0000904848505071
:100CD0008800000C121212121F0000805040405079
:100CE0008000000C121212121F0000804854544859
:100CF0008000000C121212121F0000804040C04001
:100D00004080000C12111F12120B00804040404026
:100D10008000000F10503010080000804048504004
:100D20008000000F121212120B0000804050484049
:100D30008000000F121212120B0000805048485021
:100D40008000000F121212120B0000805040405021
:100D50008000000F121212120B0000000048D00099
:100D60000000000010101F10100000000040D0080C
:100D70000000000010101F10100000001048C810E4
:100D80000000000010101F10100000000050C010E4
:100D90000000000010101F10100000008054485484
:100DA000E00000000F1010100F0000D088485050D5
:100DB0008800001F000000001F00008040485040D5
:100DC0008000000F101010100F00008040504840AD
:100DD0008000000F101010100F0000805048485085
:100DE0008000000F101010100F0000904848505065
:100DF0008800000F101010100F000080504040506D
:100E00008000000F101010100F0000000000000004
:100E10000000000404151504040000804040C06078
:100E20009000006F181611100F0000C0000810008D
:100E3000C000000F101010081F0000C000100800B4
:100E4000C000000F101010081F0000C0100808108C
:100E5000C000000F101010081F0000C0100000108C
:100E6000C000000F101010081F0000C00010080084
:100E7000C0000020434C380E010000F88040404084
:100E80008000007F081010100F0000C0100000103C
:100E9000C0000020434C380E010020FF0203000078
:100EA0000000000000000000000000000000000042
:100EB0000000000000000000000000000000000032
:100EC0000000000000000000000000000000000022
:100ED000000000F8FCFCF80000000000000000002A
:100EE00000000001BFBF0100000000000000000082
:100EF00000000000030300000000000000000000EC
:100F0000003CFC3C003CFC3C0000000000000000F9
:100F100000000100000001000000000000000000CF
:100F200000000000000000000000000000000000C1
:100F3000808080FEFE8080FEFE8080000000003009
:100F400031F1FF3F31F1FF3F31310100000000007E
:100F5000000F0F00000F0F00000000000000000055
:100F6000E0F018181E1E3078780000000000000025
:100F7000E1E3C386868686CCFC7800000000000092
:100F8000010100011F1F010100000000000000001E
:100F900060F098080898F060000000000000000071
:100FA000101019C9ED35141632E2C000000000001F
:100FB0000000000001030202030100000000000025
:100FC00000C0E03030307060000000000000000021
:100FD000E0F91F0E1CB8F0F0B81800000000000087
:100FE00001030303030301010303030000000000E6
:100FF000000000F8F8F80000000000000000000009
:1010000000000000030000000000000000000000DD
:1010100000000000000000000000000000000000D0
:101020000000000000E0F81C0C00000000000000C0
:1010300000000000FFFF00000000000000000000B2
:101040000000000000071F38300000000000000012
:10105000000C1CF8E0000000000000000000000090
:1010600000000000FFFF0000000000000000000082
:101070000030381F070000000000000000000000E2
:101080006060C0C0FCFCC0C06060000000000000E8
:1010900000181E0E03030E1E1800000000000000C2
:1010A0000000000000000000000000000000000040
:1010B00000000000E0E00000000000000000000C64
:1010C0000C0C0C0CFFFF0C0C0C0C0C0000000000B6
:1010D000000000000101000000000000000000000E
:1010E0000000000000000000000000000000000000
:1010F0000000000080808000000000000000000070
:101100000000180E070301000000000000000000AE
:1011100000000000000000000000000000000000CF
:101120000C0C0C0C0C0C0C0C0C0C0C00000000003B
:1011300000000000000000000000000000000000AF
:10114000000000000000000000000000000000009F
:10115000000000808080000000000000000000000F
:101160000000000303030000000000000000000076
:1011700000000000000080E0781E06000000000073
:10118000000080E0781E0701000000000000000061
:10119000181E070100000000000000000000000011
:1011A000E0F8180C0C0C0C18F8E00000000000002F
:1011B0007FFF800000000080FF7F00000000000033
:1011C000000101030303030101000000000000000F
:1011D0001818181CFCFC00000000000000000000B3
:1011E00000000000FFFF0000000000000000000001
:1011F00003030303030303030303000000000000D1
:1012000070781C0C0C0C0C1CF8F0000000000000A6
:1012100080C0E070381C0E070301000000000003CE
:1012200003030303030303030303000000000000A0
:1012300030381C0C0C0C0C9CF8F00000000000C0B6
:10124000C08000060606078FFDF8000000000000C1
:101250000103030303030303010000000000000077
:101260000000C0F0381CFCFC000000000000003052
:101270003C3F33303030FFFF3030000000000000D2
:101280000000000303030303030300000000000049
:1012900000FCFC0C8C8C8C8C0C0C00000000000002
:1012A000C0C3830301010183C7FF7C00000000006D
:1012B0000001030303030303010100000000000019
:1012C00080E0F038181C0C0C0C0C00000000000032
:1012D0007FFFC68303030387FEFC000000000000BD
:1012E00000010103030303030100000000000000EC
:1012F0001C1C0C0C0C0C0CCCFC3C00000000000076
:101300000000000080F07E0F0100000000000000DF
:1013100000000000030300000000000000000000C7
:10132000F0F8180C0C0C0C18F8F00000000000008D
:10133000F8FD8F060606068FFDF80000000000008D
:101340000001030303030303010000000000000089
:1013500000E0F8180C0C0C0C18F8E000000000007D
:1013600000070F1C1818188CC6FF3F000000000073
:101370000003030303030301010000000000000059
:1013800000000080808000000000000000000000DD
:1013900000000083838300000000000000000000C4
:1013A0000000000303030000000000000000000034
:1013B00000000080808000000000000000000000AD
:1013C0000000008383830000000000000000000094
:1013D00000180E07030100000000000000000000DC
:1013E00000000000008080C0C06060200000000C91
:1013F0000C1E1E33336161C0C080800000000000FD
:1014000000000000000000000001010100000000D9
:101410000000000000000000000000000000003399
:10142000333333333333333333333300000000008B
:10143000000000000000000000000000000000208C
:101440006060C0C08080000000000000000000005C
:101450008080C0C0616133331E1E0C0C000000018F
:10146000010100000000000000000000000000007A
:1014700000F0F81818181838F0E00000000000001C
:1014800000000000B8BC0C060703000000000000CC
:101490000000000003030000000000000000000046
:1014A000E0F8180C0C8C98F8E00000000000000038
:1014B000FFFF001E3F73617F7F600000000000009F
:1014C0000107060C0C0C0C060600000000000000D2
:1014D000181898F87878E08000000000000000C03C
:1014E000F07E3F333030333F7EF0C0000000030316
:1014F00003030303000003030303030300000018B6
:1015000018F8F8181818181838F0E0000000000053
:1015100000FFFF0606060606078FFDF80000000321
:10152000030303030303030303030100000000801C
:10153000E0F030181818181830F8F8000000003FD4
:10154000FFE080000000000000808000000000003C
:101550000001010303030303030101000000181845
:10156000F8F818181818181830F0E080000000007B
:10157000FFFF00000000000080C0FF3F00000303E9
:101580000303030303030303030100000000001827
:1015900018F8F8181818989818F8F80000000000C3
:1015A00000FFFF0606061F1F0000E0E0000000032A
:1015B00003030303030303030303030300000018EF
:1015C00018F8F818181898981818F8F8000000007B
:1015D00000FFFF0606061F1F0000000000000003BA
:1015E0000303030303030300000000000000008066
:1015F000E0F03018181818181830F8F80000003FFC
:10160000FFE08000000018181898F8F800000000AB
:101610000001010303030303030101000000181884
:10162000F8F8181800001818F8F81818000000004A
:10163000FFFF060606060606FFFF00000000030384
:10164000030303030000030303030303000000007C
:1016500018181818F8F818181818000000000000DA
:1016600000000000FFFF000000000000000000007C
:10167000030303030303030303030000000000004C
:1016800000001818181818F8F8181818000000F0BA
:10169000F0800000000080FFFF000000000000005C
:1016A00001030303030303010000000000001818F6
:1016B000F8F8181880C0F8783818180000000000F2
:1016C000FFFF0E070F1D38F0E0800000000003034D
:1016D00003030303000000000303030300000018DA
:1016E0001818F8F818181800000000000000000092
:1016F0000000FFFF0000000000E0E0000000000329
:10170000030303030303030303030300000018F8A8
:10171000F878E080000080E078F8F818000000FF1A
:10172000FF0003071C1C070300FFFF00000003036A
:101730000303030000000003030303030000001879
:10174000F8F878E08000001818F8F8180000000099
:10175000FFFF0001071E78E080FFFF00000000038C
:1017600003030303000000010303030000000080E3
:10177000E0F030181818181830F0E0800000003F32
:10178000FFE080000000000080E0FF3F000000005C
:10179000000101030303030301010000000000181E
:1017A00018F8F818181818181830F0E000000000A1
:1017B00000FFFF1818181818180C0F070000000376
:1017C0000303030303030300000000000000008084
:1017D000E0F030181818181830F0E0800000003FD2
:1017E000FFE080000000000080E0FF3F00000000FC
:1017F0000019191F0F0F1B1B19190C0C00001818CA
:10180000F8F8181818181830F0E000000000000070
:10181000FFFF0C0C0C1C3CF6E783000000000303E8
:1018200003030303000000000303030300000000A0
:10183000E0F038181818181830F8F800000000E028
:10184000E1830706060E0C0C9CF8F0000000000374
:10185000030103030303030303010000000000F876
:10186000F8181818F8F8181818F8F800000000010F
:1018700001000000FFFF0000000101000000000067
:101880000003030303030303030000000000001828
:10189000F8F818180000001818F8F81800000000F0
:1018A0007FFF80000000000080FF7F00000000003C
:1018B0000001030303030303030100000000187881
:1018C000F89818000000001898F878180000000038
:1018D000031F7CE08080E07C1F030000000000000C
:1018E000000000030303030000000000000018F8DC
:1018F000F8181800C0C0001818F8F8180000001FE9
:10190000FFE0FC3F07073FFCE0FF1F000000000076
:101910000303030000000003030300000000183865
:1019200078F8D898000098D8F87838180000008027
:10193000C0E0713B0F0F3B71E0C08000000003036B
:101940000303030300000303030303030000183829
:1019500078F8D818000018D8F87838180000000077
:1019600000000307FEFE0703000000000000000067
:10197000000303030303030303000000000000004F
:10198000F8F81818181898D8F878380000000000EF
:1019900080C0E0783C0E070300E0E000000000009B
:1019A0000303030303030303030303000000000016
:1019B00000000000FCFC0C0C0C000000000000000B
:1019C00000000000FFFF0000000000000000000019
:1019D000000000003F3F30303000000000000000F9
:1019E000061E78E0800000000000000000000000FB
:1019F00000000001071E78E08000000000000000E9
:101A00000000000000000001071E18000000000098
:101A1000000C0C0CFCFC00000000000000000000AA
:101A200000000000FFFF00000000000000000000B8
:101A3000003030303F3F0000000000000000000098
:101A40000000C0F03C3CF0C00000000000000000BE
:101A5000000303000000000303000000000000007A
:101A60000000000000000000000000000000000076
:101A70000000000000000000000000000000000066
:101A800000000000000000000000000000003030F6
:101A900030303030303030303030303030000000D6
:101AA0000000081830604000000000000000000046
:101AB0000000000000000000000000000000000026
:101AC0000000000000000000000000000000000016
:101AD000008080808080800000000000000000E026
:101AE000F333191919199BFFFE00000000000001D3
:101AF0000303030303030103030303000000000CBB
:101B00000CFCFC0080808080800000000000000051
:101B100000FFFFC78301010183C7FF7C00000003B2
:101B2000030303010303030303010100000000009A
:101B30000000808080808080008080000000007C29
:101B4000FFC7830101010103878F8F0000000000A0
:101B5000010103030303030303010100000000006C
:101B60000000808080808C0CFCFC00000000007C69
:101B7000FFC78301010183C7FFFF000000000000D1
:101B80000101030303030301030303030000000037
:101B90000000808080808080000000000000007CC9
:101BA000FFF7B33131313133B7BFBC000000000063
:101BB000010103030303030303010100000000000C
:101BC000808080F0F89C8C8C8C8C0C0000000000D5
:101BD000010101FFFF0101010101000000000000FF
:101BE00003030303030303030303000000000000D7
:101BF0000000808080808000808080800000007CE9
:101C0000FFC78301010183C7FFFF0101000000003E
:101C100001616363636363713F1F000000000C0C8C
:101C2000FCFC00808080808000000000000000003C
:101C3000FFFF070301010103FFFE00000000030393
:101C40000303030300000303030303030000000076
:101C50000080809C9C9C00000000000000000000B0
:101C600000010101FFFF0000000000000000000073
:101C70000303030303030303030300000000000046
:101C8000808080809C9C9C80000000000000000000
:101C9000010101010101FFFF000000000000000040
:101CA0006060606060703F1F000000000000000C7A
:101CB0000CFCFC0000008080808000000000000020
:101CC00000FFFF183C7EE7C3810100000000000315
:101CD00003030300000003030303030300000000E9
:101CE000000C0C0CFCFC00000000000000000000D8
:101CF00000000000FFFF00000000000000000000E6
:101D000003030303030303030303000000008080B5
:101D10008000808080800080808080000000010141
:101D2000FFFF030101FFFF030101FFFF00000303A9
:101D30000303030000030303030003030303808082
:101D40008080000080808080000000000000010191
:101D5000FFFF060301010103FFFE00000000030373
:101D60000303030300000303030303030000000055
:101D70000000808080808080000000000000007CE7
:101D8000FFC7830101010183C7FF7C000000000041
:101D9000010103030303030301010000000080802D
:101DA00080800080808080800000000000000101B1
:101DB000FFFFC78301010183C7FF7C000000606053
:101DC0007F7F6163630303030101000000000000E3
:101DD0000000808080808000808080800000007C07
:101DE000FFC78301010183C7FFFF0101000000005D
:101DF00001010303036363617F7F606000000000F3
:101E000080808080000080808080000000000000D2
:101E10000101FFFF070301010103030000000003AC
:101E20000303030303030303030000000000000097
:101E30000000808080808000808000000000000022
:101E4000C6CF8F1919393133E7E7C0000000000011
:101E500003030103030303030301000000000080E8
:101E600080F8F88080808080800000000000000101
:101E700001FFFF810101018181800000000000005D
:101E80000000010303030303010100000000808040
:101E90008080000000008080808000000000010140
:101EA000FFFF800000000181FFFF00000000000034
:101EB0000001030303030301030303030000808005
:101EC0008080808000008080808080800000010110
:101ED000071F79E18080E1791F0701010000000000
:101EE00000000001030301000000000000008080EA
:101EF00080808000000000808080808000000107DA
:101F00007FF9C1F03E3EF0C1F97F070100000000FB
:101F10000003030000000003030000000000008035
:101F20008080808000008080808080000000000130
:101F30000183C76D38386DC78301010000000003BD
:101F400003030303000003030303030000000080F6
:101F50008080808000008080808080000000000100
:101F6000071F7DF180C0F17D1F07010000000060A8
:101F70006060707D7F6701000000000000000000CD
:101F80008080808080808080808000000000000051
:101F900087C7E171391D0F07C3C1000000000000B1
:101FA0000303030303030303030300000000000013
:101FB00000000000F0F80C04040000000000000025
:101FC0000000081CFFF700000000000000000000F7
:101FD000000000000F1F3020200000000000000063
:101FE00000000000FCFC00000000000000000000F9
:101FF00000000000FFFF00000000000000000000E3
:10200000000000000F0F00000000000000000000B2
:102010000004040CF8F000000000000000000000C4
:1020200000000000F7FF1C08000000000000000096
:10203000002020301F0F0000000000000000000002
:102040000000000000000000000000000000001878
:102050001C0E06060E1C18181C0E060000000000C0
:102060000000000000000000000000000000000070
:102070000000000000000000000000000000000060
:102080000000000000000000000000000000000050
:102090000000000000000000000000000000000040
:1026D00000000080800000000000000000000000FA
:1026E000000000FBFB0000000000000000000000F4
:1026F00000003F7F7F3F000000000000000000005E
:1027000080C0E0607C7CC0E0E000000000000000D1
:102710001F3F7060E0E060713100000000000000C9
:1027200000000000030300000000000000000000A3
:1027300000E0F03818181838300000000000000CD5
:102740008CCFFF7C0C0C0C0000808000000000038C
:10275000030303030303030303030100000000005A
:1027600060E0C0C0C0C0C0C0E06000000000000069
:10277000DFFF716060606071FFDF0000000000003B
:102780000000000000000000000000000000001831
:1027900038F8F898000098F8F838180000000000A1
:1027A0000028292FFEFE2F2928000000000000002D
:1027B0000003030303030303030000000000000001
:1027C00000000000FCFC0000000000000000000011
:1027D00000000000F3F30000000000000000000013
:1027E000000000000F0F00000000000000000000CB
:1027F00080F0F8DC8C8C0C0C3C3C000000000007E6
:102800000F0C1C19393373E7E67E3C000000000012
:102810000F0F0C0C0C0C0E07030000000000000052
:1028200000383800000038380000000000000000C8
:102830000000000000000000000000000000000098
:10284000000000000000000000000000000000C0C8
:10285000E030B0D8D8D8D8B030E0C00000000F3F8A
:1028600070CFDFB9B0B0B9D9C0703F0F0000000021
:102870000000000101010100000000000000000054
:102880000080D0584848F8F0000000000000000028
:102890000033373434363337360000000000000090
:1028A0000000000000000000000000000000000028
:1028B0000000000000000000000000000000001008
:1028C000387CEEC78311387CEEC78301000000001E
:1028D00000000001010100000001010100000000F2
:1028E00000000000000000000000000000000003E5
:1028F0000303030303030303033F3F00000000003F
:1029000000000000000000000000000000000000C7
:1029100000000000000000000000000000000000B7
:102920000C0C0C0C0C0C0C0C0C0C0C000000000023
:10293000000000000000000000000000000000C0D7
:10294000E030F0D8D8D8D8B030E0C00000000F3F59
:1029500070C0FFBF848CBFF3C0703F0F0000000049
:102960000000000101010100000000000000000063
:1029700000181818181818180000000000000000AF
:102980000000000000000000000000000000000047
:102990000000000000000000000000000000000037
:1029A0000070F88C04048CF8700000000000000037
:1029B0000000000101010100000000000000000013
:1029C0000000000000000000000000000000000007
:1029D00000000000F0F00000000000000000000314
:1029E000030303033F3F030303030300000000034B
:1029F00003030303030303030303030000000000B6
:102A00000000181C84C4643C180000000000000092
:102A10000000060705040406060000000000000090
:102A200000000000000000000000000000000000A6
:102A30000000181C444464FC9800000000000000E2
:102A40000000030704040407030000000000000066
:102A50000000000000000000000000000000000076
:102A600000002030381C0C040000000000000000B2
:102A70000000000000000000000000000000000056
:102A80000000000000000000000000000000808046
:102A90008080000000008080808000000000010134
:102AA000FFFF800000000181FFFF00000000000028
:102AB0007F7F03030303030103030303000000F00C
:102AC000F8F80C0CFCFC0CFCFC0C0C0000000001E9
:102AD00003030606FFFF00FFFF00000000000000E8
:102AE000000C0C0C0F0F000F0F0C0C00000000006E
:102AF00000000000000000000000000000000000D6
:102B00000000000E0E0E000000000000000000009B
:102B100000000000000000000000000000000000B5
:102B200000000000000000000000000000000000A5
:102B30000000000000000000000000000000000095
:102B4000000020686E7E38000000000000000000D9
:102B500000080808FCFC0000000000000000000065
:102B6000000404040707040404000000000000003F
:102B70000000000000000000000000000000000055
:102B800000E0F018181818F0E00000000000000045
:102B90000031333636363633310000000000000095
:102BA0000000000000000000000000000000000025
:102BB0000000000000000000000000000000000114
:102BC00083C7EE7C381183C7EE7C3810000000010B
:102BD00001010000000101010000000000000808E0
:102BE00008FCFC00000000000080C06030180404F5
:102BF0000487C764341CCCA69389FCFE80000000C7
:102C000003010000000000000002030302000808A6
:102C100008FCFC00000000000080C06030180404C4
:102C20000487C764341C0C068FC762321E0C000078
:102C30000301000000000003030202020303181C4A
:102C4000444464FC9800000080C060301800030712
:102C500084C464371BCCA69389FCFE80000000036B
:102C60000100000000000000020303020000000059
:102C70000000000080800000000000000000000054
:102C800080C0C0607B3B000000000000000000002E
:102C90000F1F38303030303E1E00000000000000B2
:102CA000181899FB7B7AE08000000000000000C04B
:102CB000F07E3F333030333F7EF0C000000003032E
:102CC00003030303000003030303030300000000E6
:102CD000181898FA7B7BE18000000000000000C01B
:102CE000F07E3F333030333F7EF0C00000000303FE
:102CF00003030303000003030303030300000002B4
:102D00001B1B99F87879E38302000000000000C0E3
:102D1000F07E3F333030333F7EF0C00000000303CD
:102D20000303030300000303030303030000000085
:102D30001A1B99F97B7BE38100000000000000C0B2
:102D4000F07E3F333030333F7EF0C000000003039D
:102D50000303030300000303030303030000000055
:102D6000181B9BF87878E38300000000000000C087
:102D7000F07E3F333030333F7EF0C000000003036D
:102D80000303030300000303030303030000000025
:102D900018189BFE7C7EE38000000000000000C04D
:102DA000F07E3F333030333F7EF0C000000003033D
:102DB00003030303000003030303030300000000F5
:102DC000000018D8F8F8F81818181878780000C01B
:102DD000F03C1F1918FFFF06060F0FC0C0000303C9
:102DE000030300030303030303030303030000803F
:102DF000E0F030181818181830F8F8000000003FFC
:102E0000FFE08000000000000080C0000000000023
:102E10000001216B6F7F3B030301000000000018DD
:102E200018F8F8191B1B9A9818F8F8000000000011
:102E300000FFFF0606061F1F0000E0E00000000381
:102E40000303030303030303030303030000001846
:102E500018F8F8181A1B9B9918F8F80000000000E1
:102E600000FFFF0606061F1F0000E0E00000000351
:102E70000303030303030303030303030000001816
:102E800018FAFB1B191898991BFBFA0000000000A8
:102E900000FFFF0606061F1F0000E0E00000000321
:102EA00003030303030303030303030300000018E6
:102EB00018F8FB1B1818989B1BF8F800000000007E
:102EC00000FFFF0606061F1F0000E0E000000003F1
:102ED00003030303030303030303030300000000CE
:102EE00018181819FBFB1A18181800000000000029
:102EF00000000000FFFF00000000000000000000D4
:102F000003030303030303030303000000000000A3
:102F10001818181AFBFB19181818000000000000F8
:102F200000000000FFFF00000000000000000000A3
:102F30000303030303030303030300000000000073
:102F40001A1B1B19F8F8191B1B1A000000000000BF
:102F500000000000FFFF0000000000000000000073
:102F60000303030303030303030300000000000043
:102F700018181B1BF8F81B1B181800000000000095
:102F800000000000FFFF0000000000000000000043
:102F900003030303030303030303000000001818E3
:102FA000F8F818181818181830F0E0800000060615
:102FB000FFFF06060600000080C0FF3F000003037D
:102FC00003030303030303030301000000000018CD
:102FD000F8FA7BE18103031B19F8F81800000000E0
:102FE000FFFF0001071E78E080FFFF0000000003E4
:102FF000030303030000000103030300000000803B
:10300000E0F03018191B1B1A30F0E0800000003F80
:10301000FFE080000000000080E0FF3F00000000B3
:10302000000101030303030301010000000000800D
:10303000E0F030181A1B1B1930F0E0800000003F50
:10304000FFE080000000000080E0FF3F0000000083
:1030500000010103030303030101000000000080DD
:10306000E0F2331B1918181933F3E2800000003F17
:10307000FFE080000000000080E0FF3F0000000053
:1030800000010103030303030101000000000080AD
:10309000E0F23319191B1B1B31F0E0800000003FE8
:1030A000FFE080000000000080E0FF3F0000000023
:1030B000000101030303030301010000000000807D
:1030C000E0F0331B1818181B33F0E0800000003FBD
:1030D000FFE080000000000080E0FF3F00000000F3
:1030E000000101030303030301010000000000408D
:1030F000E0C0800000000080C0E0400000000080D0
:10310000C0E1733F1E1E3F73E1C08000000000005D
:10311000010000000000000000010000000000802D
:10312000E0F03018181898D878FCE6820000003FCC
:10313000FFE0C0701C06030080E0FF3F00000004B9
:10314000060301030303030301010000000000184C
:10315000F8F818190303021818F8F818000000000E
:103160007FFF80000000000080FF7F000000000063
:103170000001030303030303030100000000001820
:10318000F8F818180203031918F8F81800000000DE
:103190007FFF80000000000080FF7F000000000033
:1031A00000010303030303030301000000000018F0
:1031B000F8FA1B1B010000191BFBFA1800000000A5
:1031C0007FFF80000000000080FF7F000000000003
:1031D00000010303030303030301000000000018C0
:1031E000F8F81B1B0000001B1BF8F818000000007B
:1031F0007FFF80000000000080FF7F0000000000D3
:103200000001030303030303030100000000183857
:1032100078F8D81A030319D8F87838180000000095
:1032200000000307FEFE070300000000000000008E
:10323000000303030303030303000000000000185E
:1032400018F8F8D8D8C0C0C0C080800000000000C6
:1032500000FFFF606060606060313F1F000000039E
:10326000030303030300000000000000000000004F
:1032700000F0F81C0C0C9CF8F000000000000000AE
:1032800000FFFF00038383078EFCF80000000003AB
:103290000303030300010303030100000000000017
:1032A000048C9CB8B0A0800000000000000000E08A
:1032B000F333191919199BFFFE00000000000001EB
:1032C00003030303030301030303030000000000DF
:1032D000008080A0B0B89C0C04000000000000E05A
:1032E000F333191919199BFFFE00000000000001BB
:1032F00003030303030301030303030000000000AF
:1033000020B0B89C8C9CB83020000000000000E089
:10331000F333191919199BFFFE000000000000018A
:10332000030303030303010303030300000000007E
:1033300020B09898B8B0B01808000000000000E075
:10334000F333191919199BFFFE000000000000015A
:10335000030303030303010303030300000000004E
:1033600000B8B8808080B83800000000000000E09D
:10337000F333191919199BFFFE000000000000012A
:10338000030303030303010303030300000000001E
:103390000080B8ECC4ECB80000000000000000E0C1
:1033A000F333191919199BFFFE00000000000001FA
:1033B00003030303030301030303030000000000EE
:1033C0008080808000008080808000000000E0F32A
:1033D0003319199BFFFFB3313133BFBE0000010326
:1033E00003030303010103030303010100000000C1
:1033F0000000808080808000808000000000007CD1
:10340000FFC78301010101038F8F0000000000004E
:103410000101236B6F7F3B030301000000000000EC
:1034200000048C9CB8B0A080000000000000007C6C
:10343000FFF7B33131313133B7BFBC0000000000BA
:103440000101030303030303030101000000000063
:10345000000080A0B0B89C8C040000000000007C3C
:10346000FFF7B33131313133B7BFBC00000000008A
:103470000101030303030303030101000000000033
:103480000020B0B89C8C9CB8302000000000007C6C
:10349000FFF7B33131313133B7BFBC00000000005A
:1034A0000101030303030303030101000000000003
:1034B0000038B8808080B8B8000000000000007CB0
:1034C000FFF7B33131313133B7BFBC00000000002A
:1034D00001010303030303030301010000000000D3
:1034E000048C9CB8B0A000000000000000000000A8
:1034F00000010101FFFF00000000000000000000CB
:10350000030303030303030303030000000000009D
:10351000008080A0B0B81C0C040000000000000077
:1035200000010101FFFF000000000000000000009A
:10353000030303030303030303030000000000006D
:1035400020B0B89C8C9C38302000000000000000A7
:1035500000010101FFFF000000000000000000006A
:10356000030303030303030303030000000000003D
:1035700000B8B880808038380000000000000000EB
:1035800000010101FFFF000000000000000000003A
:1035900003030303030303030303000000000666A1
:1035A0006676BCBC98B8F8ECCC8C00000000007CBF
:1035B000FFC7830101010183C7FF7E0000000000F7
:1035C00001010303030303030101000000008080E5
:1035D000A0B01818B8B0B0980800000000000101B1
:1035E000FFFF060301010103FFFE000000000303CB
:1035F00003030303000003030303030300000000AD
:1036000000048C9CB8B0A080000000000000007C8A
:10361000FFC7830101010183C7FF7C000000000098
:103620000101030303030303010100000000000084
:10363000000080A0B0B89C8C040000000000007C5A
:10364000FFC7830101010183C7FF7C000000000068
:103650000101030303030303010100000000000054
:103660002030B89C8C9CB8B0200000000000007C8A
:10367000FFC7830101010183C7FF7C000000000038
:103680000101030303030303010100000000000024
:1036900020309898B8B0B098080000000000007C76
:1036A000FFC7830101010183C7FF7C000000000008
:1036B00001010303030303030101000000000000F4
:1036C0000038B8808080B8B8000000000000007C9E
:1036D000FFC7830101010183C7FF7C0000000000D8
:1036E00001010303030303030101000000000000C4
:1036F000000000E0E0E000000000000000000C0C12
:103700000C0C0CCCCCCC0C0C0C0C0C0000000000F5
:1037100000000001010100000000000000000000A6
:1037200000008080808080800080C0400000007C9D
:10373000FF87C36131190D87C3FF7C000000080CAF
:10374000070303030303030301010000000080805B
:10375000848C1C38302080808080000000000101B3
:10376000FFFF800000000181FFFF0000000000005B
:10377000000103030303030103030303000080802C
:1037800080802030381C8C84808000000000010183
:10379000FFFF800000000181FFFF0000000000002B
:1037A00000010303030303010303030300008080FC
:1037B000A0B0381C0C1CB8B0A080000000000101B3
:1037C000FFFF800000000181FFFF000000000000FB
:1037D00000010303030303010303030300008080CC
:1037E00080B838000000B8B88080000000000101F7
:1037F000FFFF800000000181FFFF000000000000CB
:10380000000103030303030103030303000000801B
:10381000808080802030B89C8C8480000000000173
:10382000071F7DF180C0F17D1F07010000000060CF
:103830006060707D7F670100000000000000000CE8
:103840000CFCFC00808080808000000000000000F4
:1038500000FFFFC78301010183C7FF7C00000060F8
:10386000607F7F6163630303030101000000008048
:1038700080B8B8800000B8B88080800000000001E7
:10388000071F7DF180C0F17D1F070100000000606F
:103890006060707D7F670100000000000000000094
:1038A0000000240027002A00000000002500280056
:1038B0002B000000000800020100000304070000C4
:1038C0000000000000000000000023002600290086
:1038D00004040404040404040202020202020303B6
:1038E00003030303010204081020408001020408BE
:1038F00010200102040810207C3011241FBECFEFDD
:10390000D8E0DEBFCDBF12E0A0E0B1E0EAE1FFE623
:1039100002C005900D92A031B107D9F723E0A0E1D4
:10392000B2E001C01D92A53FB207E1F71CE1CDE76F
:10393000DCE104C02197FE010E943732CC37D10769
:10394000C9F70E94C8270C948B370C940000DC0147
:103950001696ED91FC91179720E030E040E069E188
:103960000994DC011696ED91FC91179720E030E068
:1039700040E068E109949A01DC011696ED91FC9112
:103980001797462F67E10994462FDC011696ED91B3
:10399000FC91179720E030E066E10994462FDC01A6
:1039A0001696ED91FC91179720E030E065E10994BF
:1039B000DC011896ED91FC91199720E030E040E091
:1039C00069E10994DC011896ED91FC91199720E0CA
:1039D00030E040E068E10994662329F06A3019F08C
:1039E000862F90E008958FEF9FEF08951F93CF9358
:1039F000DF93EC01122FA889B989FD01349131962A
:103A00009491319684913196A491631710F0961792
:103A100020F4FA01CA01089629C070E0631B7109FD
:103A20008A9FE02D1124E69F9001E79F300D11241D
:103A3000210F311D83E0220F331F8A95E1F7C90161
:103A40000496DA01245F3F4FE889F989E80FF91FEE
:103A5000E491ED93019682179307B1F78D8988233E
:103A600081F0FA019A01285F3F4F05C01192E817D3
:103A7000F907E1F7F3CF808180958193E217F3078F
:103A8000D1F7DF91CF911F910895CF92DF92EF92FE
:103A9000FF920F931F93CF93DF936C01EB017B0198
:103AA000E40EF51E00E010E0CE15DF0561F069912F
:103AB000D601ED91FC910190F081E02DC6010995B0
:103AC000080F191FF1CFC801DF91CF911F910F91FE
:103AD000FF90EF90DF90CF900895089580E090E000
:103AE0000895EF92FF920F931F93CF93DF931F924E
:103AF000CDB7DEB77C018B01D8016C916731E1F065
:103B000078F46531A0F1F80141814983D701169617
:103B1000ED91FC91179720E030E0C701099524C092
:103B20006A31A8F06E3F19F5F8014181498369E2D5
:103B3000C7010E94D02218C0F80181818983AE019B
:103B40004F5F5F4F61E0C7010E94BB1C0DC00F5F5C
:103B50001F4FD7011696ED91FC91179720E030E0AA
:103B600040E0C7010995C8CF0E5F1F4FC5CF0F902A
:103B7000DF91CF911F910F91FF90EF900895EF92F9
:103B8000FF920F931F93CF93DF93EC01142F7901D2
:103B90006D30A9F118F46B3039F15FC06E3009F463
:103BA00041C06F3009F059C00E94B11CF7018381F8
:103BB0000C89F8E08F9F000D112460E4CE010E9473
:103BC000CE1C602F62956F706061CE010E94CE1C8A
:103BD000602F6F70CE010E94C41CF7016481606B7E
:103BE000CE010E94C41C29C0411103C064E171E0F0
:103BF00002C06FE071E0CE010E94711D71C04111E1
:103C000008C068E071E00E94711DE881F981828935
:103C100007C061E071E00E94711DE881F98183892C
:103C20008C8B5EC00E94B11C61E8CE010E94CE1C4C
:103C3000612FCE010E94C41C0CC0F701408151814C
:103C40006281660F660F660FCE010E94BB1C115089
:103C5000A1F7CE010E94A71C43C0693031F48EE465
:103C600091E0998388831C8A3BC06A30B9F5EA8564
:103C7000FB8520E030E040E068E2CE010995EE816E
:103C8000FF8120E030E040E064E1CE01099541E0B1
:103C90006BE4CE010E94D022E881F981448169E27F
:103CA000CE010E94D02240E06BE4CE010E94D022DF
:103CB000E881F981448169E2CE010E94D02241E08D
:103CC0006BE4CE010E94D022E881F981458169E24E
:103CD000CE010E94D02269E171E08DCF80E001C069
:103CE00081E0DF91CF911F910F91FF90EF900895A8
:103CF000CF93DF931F92CDB7DEB76983BE016F5FAD
:103D00007F4F0E94C3250F90DF91CF910895EF92CE
:103D1000FF921F93CF93DF93EC01162F7A010E943D
:103D2000E21C60E4CE010E94781EE885F9859701C7
:103D3000412F67E1CE010995CE01DF91CF911F910F
:103D4000FF90EF900C94D81CEF92FF921F93CF93AB
:103D5000DF93EC01142F7901663121F128F46431ED
:103D6000E9F1653149F056C0683109F44FC0F0F00F
:103D7000693109F444C04EC080913502882319F09E
:103D8000CE010E94D81CCE010E94E21C60E0CE0150
:103D90000E94781E612FCE010E94781E81E08093E0
:103DA000350239C0642F0E94781E32C080913502DE
:103DB000882319F0CE010E94D81CA701193148F0C0
:103DC00068E1CE010E94871E185188E1E80EF11CBF
:103DD000F4CF612FCE010E94871E18C08E898F3FBD
:103DE00011F488E78E8BE885F9859701412F64E10E
:103DF000CE01DF91CF911F91FF90EF9009948091B8
:103E00003502882319F0CE010E94D81C1092350289
:103E100081E001C080E0DF91CF911F91FF90EF9092
:103E20000895CF93DF93EC01862F683109F45FC0CA
:103E300060F4B901843181F0873109F0CEC050E0DF
:103E400085ED92E00E94382350C0693109F472C0B8
:103E5000603209F44AC0C1C08C859D85AE85BF859E
:103E6000892B8A2B8B2B71F4E881F981A585B0E031
:103E700020EA36E841E050E00E943D326C877D87C1
:103E80008E879F87109267021092660210926902D5
:103E90001092680210926F0281E08093710210927A
:103EA000700261E082E10E94232761E083E10E94C9
:103EB00023278091B9008E7F8093B9008091B9004B
:103EC0008D7F8093B90088E48093B80085E4809367
:103ED000BC008AE093E290936B0280936A028BE0CD
:103EE00093E290936D0280936C0281E077C02C8501
:103EF0003D854E855F8560E074E284EF90E00E942E
:103F00001532DA01C9014097A109B109B695A79503
:103F1000979587958093B8008E8990E095958795C1
:103F200091E090936502809334021092690210929E
:103F30006802DBCF20916802213208F047C08091EF
:103F40006F028111FCCF8091340292E090936F0256
:103F500091E0909371029FEF90936E021092930202
:103F600020939202E5E4F2E0A2E7B2E090E02917A4
:103F700021F031913D939F5FFACF1092940290917E
:103F80009402880F892B8093940280917002813073
:103F900061F410927002809194028093BB00809132
:103FA000BC0083FDF8CF85EC01C085EE8093BC009A
:103FB00080916F028230E1F380916E028F3F31F089
:103FC00080916E02803211F080916E02109269022F
:103FD000109268021092650288CF80E0DF91CF9145
:103FE00008950F931F93CF93DF93EC01862F642FD7
:103FF0008C3270F48A3208F05DC0883289F08932E0
:1040000009F042C070E080E090E00E948E2752C02C
:104010008D32D1F0C8F194EB980F923020F134C07A
:104020008E01025E1F4FD0E0F80181918F018F3F1A
:1040300039F0D03110F461E001C062E00E945227F3
:10404000DF5FD63189F736C0433018F082E090E068
:1040500002C085E090E0880F991F880F991F05978F
:104060000197F1F727C08F73C80FD11D411107C009
:1040700061E08E8D0E94522760E08E8D11C062E05B
:104080008E8D0E94522716C08034B0F0982F9F73F7
:10409000FE01E90FF11D868D8F3F61F0903118F41C
:1040A0000E94232707C00E94FA2621E0892B09F4E9
:1040B00020E0298F81E001C080E0DF91CF911F9146
:1040C0000F9108954F925F926F927F928F929F927D
:1040D000AF92BF92CF92DF92EF92FF920F931F9316
:1040E000CF93DF93CDB7DEB72D970FB6F894DEBF31
:1040F0000FBECDBF7C01C62ED42EB22EDC01509651
:104100008D919C915197FC013296149131960491B6
:10411000512E560E040F81E0860F581608F411E058
:10412000712CFE0131964F0144244394672CAC2C32
:10413000262DA4016B2DC7010E94F61CAC86DD86DE
:104140004B869A868986D7011496ED91FC91159736
:104150009E01275F3F4F41E06FE0C70109956394DF
:10416000A394A51428F3D394710ED016F8F22D96CB
:104170000FB6F894DEBF0FBECDBFDF91CF911F9178
:104180000F91FF90EF90DF90CF90BF90AF909F90F6
:104190008F907F906F905F904F9008951F93CF9373
:1041A000DF93DC015496ED91FC9155976A3061F4F0
:1041B0003396E491D9968C91D997E80FD996EC93E0
:1041C000D997D8961C920CC0262FEC0132961491E8
:1041D00049AD68AD04960E946220E8ADE10FE8AFFA
:1041E00081E090E0DF91CF911F910895DC0180E0A4
:1041F000615098F02D91982F9227E92FEF70F0E001
:10420000EA58FF4F249192959F70E92FF0E0EA570A
:10421000FF4FE491822F8E27EBCF0895FC01908110
:104220000180F281E02DF8948181892B81832281A4
:10423000892F809528232283A7E0B0E01197F1F71A
:10424000218182238183A3E2B0E01197F1F780817D
:104250007894EFECF0E03197F1F7982381E009F4DE
:1042600080E00895FC0190810180F281E02D892F8A
:10427000809560FF12C0F89422818223828381811D
:10428000892B8183A3E2B0E01197F1F78281982B0B
:104290009283789487ED90E011C0F8942281822374
:1042A00082838181892B8183AFEFB0E01197F1F791
:1042B0008281982B928378948FE090E00197F1F7B8
:1042C0000895DC012C911196ED91FC911297F894D0
:1042D0008181922F90958923818378948DE743E0A3
:1042E00050E0815021F1DA011197F1F7308132234A
:1042F000C1F3F8948281892382838181822B818317
:104300007894ABE7B7E01197F1F7F894818198239F
:10431000918383E191E00197F1F78081282381E087
:1043200009F080E07894E3E6F6E03197F1F708953C
:10433000CF93DF9383E00E94FA2631E020E0892BBF
:1043400009F030E0C32FD22F84E00E94FA26892B97
:1043500009F4229682E00E94FA26892B09F4249619
:10436000CE01DF91CF910895EF92FF920F931F93AB
:10437000CF93DF93CDB7DEB729970FB6F894DEBFA2
:104380000FBECDBF80914603909147030E946121EB
:104390006CEC80914603909147030E94292464E4C9
:1043A00080914603909147030E94292480914603FF
:1043B000909147030E940E21813039F062E070E055
:1043C00080E090E00E948E27F1CF8091490380FF2A
:1043D0000EC069E0CE0101960E94582468E0CE012B
:1043E00001960E94F6209985891323C005C062E0DA
:1043F000CE0101960E94582469817A81072E000C13
:10440000880B990B0E94733320E030E040E85DE3B5
:104410000E9428347B018C0120E030E04CE552EC16
:104420000E94C43287FF0AC020E050E04EEF32EC19
:1044300009C020E050E040E033EC04C02E2D5F2D99
:10444000402F312F622F752F842F932F29960FB66F
:10445000F894DEBF0FBECDBFDF91CF911F910F91BA
:10446000FF90EF900895CF92DF92EF92FF920F931B
:104470001F93CF93DF936C017A018B01C0E0D0E0F2
:10448000CE15DF0581F0D8016D918D01D601ED913A
:10449000FC910190F081E02DC6010995892B11F066
:1044A0002196EECF7E01C701DF91CF911F910F9131
:1044B000FF90EF90DF90CF90089580E008950E94E4
:1044C00095343FB7F8948091410290914202A091B7
:1044D0004302B091440226B5A89B05C02F3F19F0B6
:1044E0000196A11DB11D3FBFBA2FA92F982F882774
:1044F000820F911DA11DB11DBC01CD0142E0660FCF
:10450000771F881F991F4A95D1F708951F920F9220
:104510000FB60F9211242F933F938F939F93AF93D6
:10452000BF938091E1029091E202A091E302B091E9
:10453000E4023091400223E0230F2D3720F401964E
:10454000A11DB11D05C026E8230F0296A11DB11DB6
:10455000209340028093E1029093E202A093E30251
:10456000B093E4028091410290914202A0914302F3
:10457000B09144020196A11DB11D80934102909318
:104580004202A0934302B0934402BF91AF919F9126
:104590008F913F912F910F900FBE0F901F90189504
:1045A000DC011A96ED91FC911B9720E030E0099414
:1045B00085ED8093BC008091BC0084FDFCCF1092FF
:1045C0006F0208954091C403262F30E0240F311D5F
:1045D00021323105DCF420916F022430C9F4FC0152
:1045E00080E090E0861758F43091C4032191DC01FB
:1045F000AC55BC4FA30FB11D2C930196F3CF809106
:10460000C403680F6093C40380E0089581E00895B7
:1046100082E00895089508950895E09167028091D9
:104620006602E81730F4F0E0EC57FC4F808190E030
:1046300008958FEF9FEF0895909167028091660231
:10464000981750F4E92FF0E0EC57FC4F208130E050
:104650009F5F9093670202C02FEF3FEFC90108955B
:104660008091660290E020916702821B9109089573
:10467000CF92DF92EF92FF920F931F93CF93DF932E
:104680007C01CB018A0120916502222389F0EB0194
:104690006B01C40ED51ECC15DD0569F06991D701FB
:1046A000ED91FC910190F081E02DC7010995F3CFC8
:1046B000642F0E94E222C801DF91CF911F910F91D8
:1046C000FF90EF90DF90CF900895CF93DF931F92EC
:1046D000CDB7DEB76983209165022223D1F0209106
:1046E0006802203240F021E030E0FC013383228375
:1046F00080E090E015C080916902E82FF0E0EB5B6C
:10470000FD4F998190838F5F809369028093680247
:1047100005C061E0CE0101960E94E22281E090E0B6
:104720000F90DF91CF910895833081F028F481308C
:1047300099F08230A1F008958730A9F08830B9F05F
:104740008430D1F4809180008F7D03C080918000FF
:104750008F7780938000089584B58F7702C084B5E9
:104760008F7D84BD08958091B0008F7703C08091C4
:10477000B0008F7D8093B00008950F931F93CF9367
:10478000DF9309E213E0C0E0D0E0CE010E94FF31E8
:10479000F80181938F012196C531D105B1F789E2E6
:1047A00093E0DF91CF911F910F910895FF920F93A6
:1047B0001F93CF93DF9309E213E0C0E0D0E0F8014C
:1047C000F1908F01CE010E94FF31F81621F06F2D7C
:1047D000CE010E9407322196C531D10581F789E2C9
:1047E00093E0DF91CF911F910F91FF9008951F9358
:1047F000CF93DF9300D000D01F92CDB7DEB71C82DD
:1048000021E02B839A838983E0914E03F0914F033B
:1048100011891D82A0914E03B0914F03E091520384
:10482000F09153039E012F5F3F4F50964C916FE0E4
:104830008EE493E009958D818F5F8D83811750F30E
:104840000F900F900F900F900F90DF91CF911F91CD
:104850000895EF92FF920F931F93CF93DF93EC0194
:10486000E62E08E010E0FF24F39461E08E2D8F2106
:1048700009F460E0CE010E943221FF0C01501109C1
:10488000A1F7F894E981FA81918188818095892343
:104890008183E981FA81928188818095892382834D
:1048A0007894DF91CF911F910F91FF90EF90089531
:1048B000AF92BF92CF92DF92EF92FF920F931F932E
:1048C000CF93DF93D82EE92EF62E80914603909158
:1048D00047030E946121009146031091470365E55B
:1048E000C8010E942924CEE3D3E06991C8010E9447
:1048F000292483E0C634D807C1F76EEB80914603C4
:10490000909147030E942924CD2DDE2D5E01AF0C2E
:10491000B11CC0904603D0904703AC16BD0689F089
:1049200088E0E82EF12C10E001E0C6010E940E2183
:104930008111102B000F81E0E81AF108B1F71993EB
:10494000E8CFC601DF91CF911F910F91FF90EF90BB
:10495000DF90CF90BF90AF900C9461214F925F9207
:104960006F927F928F929F92AF92BF92CF92DF927F
:10497000EF92FF920F931F93CF93DF9300D000D05D
:10498000CDB7DEB74B015C0129013A01670178011F
:1049900020E030E0A9010E94C43287FDA6C020E0DB
:1049A00030E0A901C301B2010E94C43287FD9DC05D
:1049B00020E030E0A901C701B6010E94C43287FDA2
:1049C00094C081E020910703309108032130310524
:1049D00009F080E0809328038092ED029092EE022D
:1049E000A092EF02B092F0024092F1025092F202D5
:1049F0006092F3027092F402C092F502D092F60235
:104A0000E092F702F092F80260911B0370911C0390
:104A100080911D0390911E030E94713320E030E0CD
:104A20004AE754E40E94C93269837A838B839C836A
:104A30008092F9029092FA02A092FB02B092FC02DC
:104A40009B01AC01C301B2010E9428342B013C013F
:104A50006093FD027093FE028093FF029093000327
:104A600029813A814B815C81C701B6010E94C9321C
:104A70006B017C0160930103709302038093030335
:104A8000909304038091050390910603019769F5C3
:104A9000A501940160E070E0CB010E945732609361
:104AA000F9027093FA028093FB029093FC02A30137
:104AB000920160E070E0CB010E9457326093FD02EA
:104AC0007093FE028093FF0290930003A70196016A
:104AD00060E070E0CB010E94573260930103709355
:104AE000020380930303909304030F900F900F90A1
:104AF0000F90DF91CF911F910F91FF90EF90DF907A
:104B0000CF90BF90AF909F908F907F906F905F906D
:104B10004F900895EF92FF920F931F93CF93DF93DF
:104B2000082FE0915E03F0915F033296C4911092DA
:104B3000660385E9E82E82E0F82ED0E010E0F70168
:104B400061917F01E0915003F09151038EE493E075
:104B500009958F3FFFEF9F0771F08E3F2FEF920770
:104B600071F3282F402F612F8EE493E00E94622082
:104B70001C0FDF5FE4CF8D2FDF91CF911F910F913D
:104B8000FF90EF9008959B01DC011896ED91FC9148
:104B9000199741E067E109941F920F920FB60F92A7
:104BA00011242F933F934F935F936F937F938F9332
:104BB0009F93AF93BF93EF93FF938091B900887F4A
:104BC000803609F49CC068F5883209F45BC090F423
:104BD000803109F454C038F4882309F4F6C08830D1
:104BE00009F44DC0F6C0883109F44CC0803209F494
:104BF0005DC0EFC0803409F468C048F4803309F424
:104C000055C0883309F0E5C080936E02D8C0803566
:104C100009F44FC0883509F45DC0883409F0D9C063
:104C2000D6C0883909F4C7C0A8F4883709F467C02A
:104C300038F4883609F463C0803709F460C0C9C00D
:104C4000883809F4B8C0803909F45FC0803809F0A9
:104C5000C0C05BC0803B09F486C038F4803A09F4D8
:104C600066C0883A09F47FC0B4C0803C09F4A7C08C
:104C7000883C09F4A4C0883B09F48AC0AAC080918A
:104C8000940210C09091930280919202981770F54F
:104C9000E091930281E08E0F80939302F0E0EE5852
:104CA000FD4F80818093BB0085EC86C080936E02AF
:104CB0008EC0E091930281E08E0F809393028091E9
:104CC000BB00F0E0EE58FD4F8083909193028091FD
:104CD00092026EC0E091930281E08E0F8093930266
:104CE0008091BB00F0E0EE58FD4F8083809171020F
:104CF00081116DC081E08093700284EA61C083E01D
:104D000080936F021092E603CFCF8091E60380324A
:104D100008F051C0E091E60381E08E0F8093E60336
:104D20008091BB00F0E0EA53FC4F8083BDCF85EC5F
:104D30008093BC0010926F028091E603803230F4C1
:104D4000E091E603F0E0EA53FC4F10826091E60345
:104D500070E0E0916C02F0916D0286EC93E00995B1
:104D60001092E60336C084E080936F021092C50370
:104D70001092C403E0916A02F0916B020995809150
:104D8000C403811105C081E08093C4031092A40381
:104D9000E091C50381E08E0F8093C503F0E0EC55F0
:104DA000FC4F80818093BB009091C5038091C40328
:104DB000981708F479CF85E88093BC000AC085EC89
:104DC0008093BC0010926F0204C010926E020E9489
:104DD000D822FF91EF91BF91AF919F918F917F91D9
:104DE0006F915F914F913F912F910F900FBE0F9058
:104DF0001F901895CF93DF93282F30E0F901EE54E0
:104E0000F74C8491F901EC51F74CD491F901E0533E
:104E1000F74CC491CC2391F081110E949423EC2F84
:104E2000F0E0EE0FFF1FEA53F74CA591B491EC911F
:104E3000ED2381E090E021F480E002C080E090E08A
:104E4000DF91CF9108951F93CF93DF93282F30E008
:104E5000F901EE54F74C8491F901EC51F74CD491DF
:104E6000F901E053F74CC491CC23C1F0162F811106
:104E70000E949423EC2FF0E0EE0FFF1FE855F74C53
:104E8000A591B4919FB7F894111104C08C91D0955D
:104E9000D82302C0EC91DE2BDC939FBFDF91CF9132
:104EA0001F910895CF93DF9390E0FC01EC51F74CF4
:104EB0002491FC01E053F74C8491882361F190E048
:104EC000880F991FFC01E256F74CC591D491FC0163
:104ED000E855F74CA591B491611109C09FB7F894BA
:104EE0008881209582238883EC912E230BC0623029
:104EF00061F49FB7F8948881322F3095832388839B
:104F0000EC912E2B2C939FBF06C08FB7F894E881AD
:104F10002E2B28838FBFDF91CF9108958F929F9280
:104F2000AF92BF92CF92DF92EF92FF926B017C0122
:104F30000E9461224B015C01C114D104E104F1041F
:104F4000F1F00E946122DC01CB0188199909AA09BC
:104F5000BB09883E9340A105B10570F321E0C21A58
:104F6000D108E108F10888EE880E83E0981EA11CA4
:104F7000B11CC114D104E104F10419F7DDCFFF9095
:104F8000EF90DF90CF90BF90AF909F908F9008955B
:104F9000CF93DF93CDB7DEB769970FB6F894DEBF36
:104FA0000FBECDBF789484B5826084BD84B5816026
:104FB00084BD85B5826085BD85B5816085BD8091E4
:104FC0006E00816080936E0010928100809181005C
:104FD0008260809381008091810081608093810054
:104FE000809180008160809380008091B100846016
:104FF0008093B1008091B00081608093B000809177
:105000007A00846080937A0080917A008260809335
:105010007A0080917A00816080937A0080917A0092
:10502000806880937A001092C10060E082E00E9464
:10503000522760E083E00E94522760E084E00E94F3
:10504000522760E085E00E94522761E086E00E94DE
:10505000522761E087E00E94522761E088E00E94C9
:10506000522783E080930001109249031092480375
:10507000F3E06F2E4424439470904803772009F4A2
:1050800065C0E0915203F091530320E030E040E02E
:105090006AE08EE493E00995CE01019628E0DC01F8
:1050A0001D922A95E9F70E94F723E0915203F091AF
:1050B000530320E030E040E06BE08EE493E009959C
:1050C0000E94BD2380913C0390913D03893390431E
:1050D00009F4E5C080E090E0A0E2B2E48093290307
:1050E00090932A03A0932B03B0932C0380E090E0CD
:1050F000A0E7B1E480932D0390932E03A0932F0398
:10510000B09330038DEC9CECACE4BDE380933103B1
:1051100090933203A0933303B0933403109235037A
:1051200010923603109237031092380381E090E01A
:1051300090933B0380933A0383E48093390389E39C
:1051400090E390933D0380933C03A9C000914603F4
:1051500010914703F8011386158614864801FBE079
:105160008F0E911C580123E0A20EB11CF401129283
:10517000EA15FB05E1F710923E03C8010E94612188
:1051800081110AC0D8011B961C921B971D961C9278
:105190001D971C961C926EC060EFC8010E942924C6
:1051A000EE24E394C12C512CFF24F394C8010E94F7
:1051B0000E21D82EC8010E940E21B1E0DB1203C0DF
:1051C0008130C9F438C02C2D30E0D8121EC0F8014F
:1051D0008385F81630F4E20FF31F83818E2159F492
:1051E00002C08F1541F0D12CF8E0FF1568F0D8010E
:1051F0001C96FC9209C0F801EC0DF11D83818E29EB
:105200008383DD24D39409C05F2CF801E20FF31FE0
:1052100093818E2D8095892383836D2DC8010E94F3
:105220003221F394EE0C19F4C394EE24E394B7E026
:10523000BC1508F0BBCFE0E4EF1548F4D8011B968D
:105240005C921B97511008C01D964C9205C0F80146
:105250001386158614860EC0D80113968C91882368
:10526000B1F3EEE3F3E0D5018D915D0181938A16F0
:105270009B06C9F780913E03882359F067E08EE3CF
:1052800093E00E94F620772473949091450398133D
:10529000712C709248036A946110EECEF2CEE090C9
:1052A0003503F090360300913703109138032091B5
:1052B00031033091320340913303509134036091B4
:1052C0002D0370912E0380912F03909130030E9443
:1052D000AE2410921F03109220031092210310920B
:1052E0002203812C912CEFE7AE2EE3E4BE2E8092B8
:1052F000230390922403A0922503B0922603809169
:105300002703882309F456C000910B0310910C0366
:10531000F801C080D180E280F380A5019401C7012B
:10532000B6010E94233418163CF4D8018D929D9248
:10533000AD92BC9213970EC020E030E0A901C701E6
:10534000B6010E94C43287FF05C0F80110821182A5
:10535000128213828090130390901403A09015037F
:10536000B0901603C0902303D0902403E09025034F
:10537000F0902603A7019601C501B4010E942334D1
:10538000181684F0C0901F03D0902003E0902103F2
:10539000F0902203A7019601C501B4010E94C43216
:1053A00087FF08C0C0921303D0921403E092150344
:1053B000F092160320913A0330913B0388EE93E07C
:1053C000289FB001299F700D389F700D112416166B
:1053D00017060CF04CC04B01770FAA08BB08C5019B
:1053E000B4010E9473336B017C0160911B037091C7
:1053F0001C0380911D0390911E030E9471339B0139
:10540000AC01C701B6010E94C9326B017C019B014E
:10541000AC016091FD027091FE028091FF029091BB
:1054200000030E9428346093FD027093FE02809373
:10543000FF0290930003A701960160910103709110
:10544000020380910303909104030E94C932609388
:1054500001037093020380930303909304038092EB
:105460001B0390921C03A0921D03B0921E030E9486
:10547000B4216093E9027093EA028093EB02909367
:10548000EC0280912703811148C0E0910B03F09159
:105490000C0380809180A280B3808092130390924D
:1054A0001403A0921503B0921603E0910903F09142
:1054B0000A0380819181A281B38180931703909325
:1054C0001803A0931903B0931A03C0902303D0903C
:1054D0002403E0902503F0902603A7019601C5015F
:1054E000B4010E942334181684F0C0901F03D0909A
:1054F0002003E0902103F0902203A7019601C5014B
:10550000B4010E94C43287FF08C0C0921303D09236
:105510001403E0921503F092160381E080932703B1
:1055200065E9662E62E0762E7CEE472E7CE1572EF2
:105530000E94B4216093E9027093EA028093EB0227
:105540009093EC0280912703882309F44EC18FB712
:10555000F8942091E1023091E2024091E3025091EF
:10556000E4022E8B3F8B488F598F8FBF80910F03A2
:1055700090911003A0911103B09112034E895F899D
:10558000688D798D481B590B6A0B7B0B80911B032F
:1055900090911C03A0911D03B0911E034817590759
:1055A0006A077B0708F421C1E0910903F0910A031F
:1055B00080819181A281B38189879A87AB87BC87DB
:1055C000E0910D03F0910E039C01AD0160817181AA
:1055D000828193810E9457326B017C0120911703D5
:1055E000309118034091190350911A0369857A8507
:1055F0008B859C850E9457326D877E878F87988B1D
:105600002091FD023091FE024091FF025091000373
:10561000C701B6010E94283420911303309114036E
:1056200040911503509116030E9458324B015C01C2
:1056300060931303709314038093150390931603E0
:1056400090912803998B91111CC02091F9023091FF
:10565000FA024091FB025091FC026D857E858F8598
:1056600098890E9428349B01AC01C501B4010E94B5
:105670005732609313037093140380931503909330
:105680001603209113033091140340911503509198
:1056900016032A8B3B8B4C8B5D8B20902303309021
:1056A000240300912503109126039101A8016A8922
:1056B0007B898C899D890E94233418165CF4C10172
:1056C000D8018093130390931403A0931503B09310
:1056D00016031AC080901F0390902003A09021030E
:1056E000B0902203A50194016A897B898C899D89E8
:1056F0000E94C43287FF08C0809213039092140363
:10570000A0921503B09216033989332379F02091C2
:10571000F9023091FA024091FB025091FC02C7015C
:10572000B6010E9428346B017C0103C0C12CD12C2E
:1057300076012091010330910203409103035091BF
:1057400004036D857E858F8598890E9428349B018E
:10575000AC01609113037091140380911503909133
:1057600016030E945732A70196010E9458326B011E
:105770007C019B01AC01B101C8010E94C43287FDCC
:1057800012C020901F03309020030091210310913C
:1057900022039101A801B601C7010E94C43287FD0E
:1057A00002C016018701E0910B03F0910C03C101C7
:1057B000D80180839183A283B38389859A85AB8541
:1057C000BC858093170390931803A0931903B0939B
:1057D0001A032E893F89488D598D20930F033093EA
:1057E000100340931103509312036091E5027091EE
:1057F000E6028091E7029091E8020E943B336B0140
:105800007C018B0161E086E00E945227C114D10423
:1058100011F460E004C00F3F110529F461E086E057
:105820000E94232743C0E8EBF8E384918330F9F02A
:1058300048F48130B9F08230A1F584B5806284BD2E
:10584000C8BC34C08730E9F0883019F1843049F59C
:1058500080918000806280938000D0928B00C09203
:105860008A0024C084B5806884BDC7BC1FC08091F5
:105870008000806880938000D0928900C092880068
:1058800015C08091B00080688093B000C092B300D2
:105890000DC08091B00080628093B000C092B400CF
:1058A00005C0003811050CF0B9CFB3CF1091390302
:1058B0001334B9F46091E9027091EA028091EB022D
:1058C0009091EC020E943B3370933F0260933E0242
:1058D0006091290370912A0380912B0390912C03EE
:1058E0002EC026E636E646EE5FE36091E90270914F
:1058F000EA028091EB029091EC020E94283420E0B1
:1059000030E040E052E40E9458320E943B337093F2
:105910003F0260933E0226E636E646EE5FE3609184
:10592000290370912A0380912B0390912C030E94EC
:10593000283420E030E040E052E40E9458320E94D7
:105940003B3370933D0260933C02812F012E000C8B
:10595000990B9F931F931F9210EB1F9380913F020F
:105960008F9380913E028F9324E831E03F932F93F1
:105970007F926F920E94A1348AE99EE090935F0328
:1059800080935E03509251034092500383E00E9443
:105990008A2580913903282F082E000C330B3F9362
:1059A0008F931F921F9380913D028F9380913C02B1
:1059B0008F93ACE8B1E0BF93AF937F926F920E9458
:1059C000A13426E930E030935F0320935E035092C8
:1059D00051034092500380E00E948A250E94982142
:1059E0008C0190933B0280933A0269E170E080E081
:1059F00090E00E948E270E9498210FB6F894DEBF97
:105A00000FBECDBF0817190721F010923B0210926C
:105A10003A0200913802109139020730110508F05E
:105A20004EC3F801EC5CFF4F80913A0290913B022B
:105A30000C9437328130910579F420E030E040E871
:105A40005FE36091290370912A0380912B03909169
:105A50002C030E94583211C082309105B9F420E025
:105A600030E040E85FE36091290370912A03809160
:105A70002B0390912C030E9457326093290370935B
:105A80002A0380932B0390932C0308C0049731F4CE
:105A900081E090E09093390280933802C09029030E
:105AA000D0902A03E0902B03F0902C0320E030E00C
:105AB00040EF51E4C701B6010E94C43287FD11C016
:105AC00020E030E048E452E4C701B6010E942334EC
:105AD00018166CF4C12CD12C58E4E52E52E4F52EA6
:105AE00006C0C12CD12C40EFE42E41E4F42EC0922C
:105AF0002903D0922A03E0922B03F0922C030E94F8
:105B0000D6238091000150E4859FC0011124809329
:105B10007C0080917A00806480937A0080917A0082
:105B200086FDFCCF609178008091790070E0782B41
:105B3000072E000C880B990B0E9473332CE333EE75
:105B40004AE85AE30E9428349B01AC010E94583273
:105B500026E636E64EE651E40E9428340E943B33A6
:105B60007F936F938FE991E09F938F937F926F92D2
:105B70000E94A134C090E502D090E602E090E702D6
:105B8000F090E8020F900F900F900F900F900F90F1
:105B900020E030E04FE753E4C701B6010E94C43271
:105BA000811106C060E087E00E94232761E00EC0FB
:105BB00020E030E0A901C701B6010E94C432811182
:105BC00009C061E087E00E94232760E088E00E942E
:105BD000232775C260E0F6CF60913A0370913B03D2
:105BE0008130910569F4072E000C880B990B0E94F7
:105BF000733320E030E040E85FE30E9458320FC08A
:105C00008230910599F4072E000C880B990B0E94A5
:105C1000733320E030E040E85FE30E9457320E9497
:105C20003B3370933B0360933A030EC0049761F4D7
:105C30008091360290913702892B31F482E090E016
:105C4000909339028093380280913A0390913B03FC
:105C5000181619062CF48C014F9714F00EE110E081
:105C600010933B0300933A031F930F9380EB91E053
:105C7000E8C08130910579F420E030E040E85FE34E
:105C800060912D0370912E0380912F03909130032A
:105C90000E94583211C082309105B9F420E030E002
:105CA00040E85FE360912D0370912E0380912F03F4
:105CB000909130030E94573260932D0370932E030E
:105CC00080932F03909330030EC0049761F480916A
:105CD000360290913702892B31F483E090E0909363
:105CE000390280933802C0902D03D0902E03E090AB
:105CF0002F03F090300320E030E040E85FE3C7017D
:105D0000B6010E94C43287FD11C020E030E04AE7AE
:105D100054E4C701B6010E94233418166CF4C12C58
:105D2000D12C3AE7E32E34E4F32E06C0C12CD12C5B
:105D300020E8E22E2FE3F22EC0922D03D0922E0304
:105D4000E0922F03F0923003C701B6010E943B336B
:105D50007F936F9381EC91E074C08130910579F469
:105D60002AE037ED43E25CE3609131037091320346
:105D700080913303909134030E94583211C08230D5
:105D80009105B9F42AE037ED43E25CE36091310319
:105D90007091320380913303909134030E94573203
:105DA00060933103709332038093330390933403F1
:105DB0000DC08430910551F42091360230913702A4
:105DC000232B21F49093390280933802C090310341
:105DD000D0903203E0903303F090340320E030E0C1
:105DE000A901C701B6010E94C43287FD11C020E09D
:105DF00030E040E251E4C701B6010E942334181696
:105E000054F4C12CD12C90E2E92E91E4F92E03C078
:105E1000C12CD12C7601C0923103D0923203E09292
:105E20003303F092340320E030E048EC52E4C70141
:105E3000B6010E9428340E943B337F936F9380ED1C
:105E400091E09F938F9371C08130910579F420E0A8
:105E500030E040E85FE36091350370913603809154
:105E60003703909138030E94583211C08230910557
:105E7000B9F420E030E040E85FE3609135037091D1
:105E8000360380913703909138030E945732609314
:105E900035037093360380933703909338030EC015
:105EA000049761F48091360290913702892B31F486
:105EB00085E090E09093390280933802C0903503DA
:105EC000D0903603E0903703F090380320E030E0C4
:105ED000A901C701B6010E94C43287FD11C020E0AC
:105EE00030E04AE754E4C701B6010E942334181693
:105EF00054F4C12CD12C8AE7E82E84E4F82E03C098
:105F0000C12CD12C7601C0923503D0923603E09299
:105F10003703F0923803C701B6010E943B337F93E9
:105F20006F93AFEDB1E0BF93AF937F926F920E94FA
:105F3000A1340F900F900F900F900F900F90BFC053
:105F40008130910511F483E404C08230910521F47D
:105F500086E4809339030EC0049761F48091360281
:105F600090913702892B31F426E030E030933902EA
:105F7000209338021F9280EB8F931F928F934EEEE7
:105F800051E05F934F937F926F920E94A1340FB6BE
:105F9000F894DEBF0FBECDBF92C0019709F07DC05F
:105FA0000E94D623E0903503F0903603009137032A
:105FB0001091380320913103309132034091330323
:105FC0005091340360912D0370912E0380912F0323
:105FD000909130030E94AE2480913A0390913B034C
:105FE000E8EEF3E08E9F60018F9FD00C9E9FD00C57
:105FF00011241C141D040CF04CC00D2C000CEE08D8
:10600000FF08C701B6010E9473334B015C01609128
:106010001B0370911C0380911D0390911E030E942D
:1060200071339B01AC01C501B4010E94C9324B011F
:106030005C019B01AC016091FD027091FE028091B8
:10604000FF02909100030E9428346093FD02709338
:10605000FE028093FF0290930003A50194016091DA
:1060600001037091020380910303909104030E9445
:10607000C9326093010370930203809303039093EA
:106080000403C0921B03D0921C03E0921D03F09204
:106090001E03109239021092380280913A029091B8
:1060A0003B02029731F40E94BD23109239021092F4
:1060B000380260E072E085E992E00E949A3426E9B5
:1060C00030E030935F0320935E035092510340927F
:1060D000500386E00E948A2580913A0290913B020B
:1060E000909337028093360280E090E0892B09F488
:1060F0001FCA0E9400001CCA4F925F926F927F924B
:106100008F929F92AF92BF92CF92DF92EF92FF92C7
:10611000CF931092D8021092D70288EE93E0A0E0BD
:10612000B0E08093D9029093DA02A093DB02B0939F
:10613000DC028AE691E09093D6028093D502109219
:106140004D0310924C0310928203109283038CE74C
:1061500091E090934B0380934A0310924F03109267
:106160004E03109263031092660310925A0310922A
:106170005B0310925C0310925D038FEF80936403C6
:1061800080936803ECE6F3E0CFEF819393E0E2388D
:10619000F907D1F78FEB9DE190935303809352035E
:1061A00084EA9EE1909355038093540381E19FE13B
:1061B000909357038093560381EF9FE19093590387
:1061C0008093580320E030E040E069E08EE493E003
:1061D0000E94BF1DC0937703C0937803C0937903D7
:1061E00060E085E00E945227E9EEF8E3E491E09355
:1061F000E703E5EDF8E3E491F0E0EE0FFF1FEA536B
:10620000F74C859194919093E9038093E803109261
:10621000F2031092F4031092F303E2EFF3E08AEE3C
:1062200093E012928E179F07E1F787EE93E0909329
:106230004703809346031092480310924903C0908D
:106240003503D0903603E0903703F0903803809008
:10625000310390903203A0903303B0903403409008
:106260002D0350902E0360902F037090300385EE25
:1062700092E090930C0380930B0389EE92E090934D
:106280000A038093090389E293E090930E038093BD
:106290000D031092270310921F03109220031092F7
:1062A00021031092220380E090E0AFE7B3E48093F3
:1062B000230390932403A0932503B093260384E63D
:1062C00090E0A0E0B0E080931B0390931C03A093A8
:1062D0001D03B0931E03109206031092050320E0E5
